{
  "contractName": "ExampleSlidingWindowOracle",
  "abi": [
    {
      "inputs": [
        {
          "internalType": "address",
          "name": "factory_",
          "type": "address"
        },
        {
          "internalType": "uint256",
          "name": "windowSize_",
          "type": "uint256"
        },
        {
          "internalType": "uint8",
          "name": "granularity_",
          "type": "uint8"
        }
      ],
      "stateMutability": "nonpayable",
      "type": "constructor"
    },
    {
      "inputs": [],
      "name": "factory",
      "outputs": [
        {
          "internalType": "address",
          "name": "",
          "type": "address"
        }
      ],
      "stateMutability": "view",
      "type": "function"
    },
    {
      "inputs": [],
      "name": "granularity",
      "outputs": [
        {
          "internalType": "uint8",
          "name": "",
          "type": "uint8"
        }
      ],
      "stateMutability": "view",
      "type": "function"
    },
    {
      "inputs": [
        {
          "internalType": "address",
          "name": "",
          "type": "address"
        },
        {
          "internalType": "uint256",
          "name": "",
          "type": "uint256"
        }
      ],
      "name": "pairObservations",
      "outputs": [
        {
          "internalType": "uint256",
          "name": "timestamp",
          "type": "uint256"
        },
        {
          "internalType": "uint256",
          "name": "price0Cumulative",
          "type": "uint256"
        },
        {
          "internalType": "uint256",
          "name": "price1Cumulative",
          "type": "uint256"
        }
      ],
      "stateMutability": "view",
      "type": "function"
    },
    {
      "inputs": [],
      "name": "periodSize",
      "outputs": [
        {
          "internalType": "uint256",
          "name": "",
          "type": "uint256"
        }
      ],
      "stateMutability": "view",
      "type": "function"
    },
    {
      "inputs": [],
      "name": "windowSize",
      "outputs": [
        {
          "internalType": "uint256",
          "name": "",
          "type": "uint256"
        }
      ],
      "stateMutability": "view",
      "type": "function"
    },
    {
      "inputs": [
        {
          "internalType": "uint256",
          "name": "timestamp",
          "type": "uint256"
        }
      ],
      "name": "observationIndexOf",
      "outputs": [
        {
          "internalType": "uint8",
          "name": "index",
          "type": "uint8"
        }
      ],
      "stateMutability": "view",
      "type": "function"
    },
    {
      "inputs": [
        {
          "internalType": "address",
          "name": "tokenA",
          "type": "address"
        },
        {
          "internalType": "address",
          "name": "tokenB",
          "type": "address"
        }
      ],
      "name": "update",
      "outputs": [],
      "stateMutability": "nonpayable",
      "type": "function"
    },
    {
      "inputs": [
        {
          "internalType": "address",
          "name": "tokenIn",
          "type": "address"
        },
        {
          "internalType": "uint256",
          "name": "amountIn",
          "type": "uint256"
        },
        {
          "internalType": "address",
          "name": "tokenOut",
          "type": "address"
        }
      ],
      "name": "consult",
      "outputs": [
        {
          "internalType": "uint256",
          "name": "amountOut",
          "type": "uint256"
        }
      ],
      "stateMutability": "view",
      "type": "function"
    }
  ],
  "bytecode": "0x61010060405234801561001157600080fd5b5060405161177e38038061177e8339818101604052606081101561003457600080fd5b8101908080519060200190929190805190602001909291908051906020019092919050505060018160ff16116100d2576040517f08c379a00000000000000000000000000000000000000000000000000000000081526004018080602001828103825260208152602001807f536c6964696e6757696e646f774f7261636c653a204752414e554c415249545981525060200191505060405180910390fd5b818160ff168260ff1684816100e357fe5b0460e0818152500214610141576040517f08c379a000000000000000000000000000000000000000000000000000000000815260040180806020018281038252603081526020018061174e6030913960400191505060405180910390fd5b8273ffffffffffffffffffffffffffffffffffffffff1660808173ffffffffffffffffffffffffffffffffffffffff1660601b815250508160a081815250508060ff1660c08160ff1660f81b8152505050505060805160601c60a05160c05160f81c60e05161154d610201600039806103e252806106f6528061075852806107b95250806102d752806105ed528061078452806109485250806102fb528061036752806104045250806103255280610553528061057c525061154d6000f3fe608060405234801561001057600080fd5b50600436106100885760003560e01c8063c45a01551161005b578063c45a0155146101c1578063c640752d1461020b578063dbaad32f1461026f578063e4463eb2146102b757610088565b8063556f0dc71461008d5780638a14117a146100b15780638c86f1e4146100cf578063bfcc8e4214610151575b600080fd5b6100956102d5565b604051808260ff1660ff16815260200191505060405180910390f35b6100b96102f9565b6040518082815260200191505060405180910390f35b61013b600480360360608110156100e557600080fd5b81019080803573ffffffffffffffffffffffffffffffffffffffff16906020019092919080359060200190929190803573ffffffffffffffffffffffffffffffffffffffff16906020019092919050505061031d565b6040518082815260200191505060405180910390f35b61019d6004803603604081101561016757600080fd5b81019080803573ffffffffffffffffffffffffffffffffffffffff1690602001909291908035906020019092919050505061050d565b60405180848152602001838152602001828152602001935050505060405180910390f35b6101c9610551565b604051808273ffffffffffffffffffffffffffffffffffffffff1673ffffffffffffffffffffffffffffffffffffffff16815260200191505060405180910390f35b61026d6004803603604081101561022157600080fd5b81019080803573ffffffffffffffffffffffffffffffffffffffff169060200190929190803573ffffffffffffffffffffffffffffffffffffffff169060200190929190505050610575565b005b61029b6004803603602081101561028557600080fd5b8101908080359060200190929190505050610753565b604051808260ff1660ff16815260200191505060405180910390f35b6102bf6107b7565b6040518082815260200191505060405180910390f35b7f000000000000000000000000000000000000000000000000000000000000000081565b7f000000000000000000000000000000000000000000000000000000000000000081565b60008061034b7f000000000000000000000000000000000000000000000000000000000000000086856107db565b9050600061035882610936565b905060008160000154420390507f00000000000000000000000000000000000000000000000000000000000000008111156103de576040517f08c379a00000000000000000000000000000000000000000000000000000000081526004018080602001828103825260338152602001806114936033913960400191505060405180910390fd5b60027f0000000000000000000000000000000000000000000000000000000000000000027f00000000000000000000000000000000000000000000000000000000000000000381101561047c576040517f08c379a000000000000000000000000000000000000000000000000000000000815260040180806020018281038252602c8152602001806114c6602c913960400191505060405180910390fd5b600080610488856109de565b509150915060006104998a89610c69565b5090508973ffffffffffffffffffffffffffffffffffffffff168173ffffffffffffffffffffffffffffffffffffffff1614156104ed576104e0856001015484868c610dfd565b9650505050505050610506565b6104fd856002015483868c610dfd565b96505050505050505b9392505050565b6000602052816000526040600020818154811061052657fe5b9060005260206000209060030201600091509150508060000154908060010154908060020154905083565b7f000000000000000000000000000000000000000000000000000000000000000081565b60006105a27f000000000000000000000000000000000000000000000000000000000000000084846107db565b905060008060008373ffffffffffffffffffffffffffffffffffffffff1673ffffffffffffffffffffffffffffffffffffffff1681526020019081526020016000208054905090505b7f000000000000000000000000000000000000000000000000000000000000000060ff1681101561067d576000808373ffffffffffffffffffffffffffffffffffffffff1673ffffffffffffffffffffffffffffffffffffffff1681526020019081526020016000206001816001815401808255809150500390600052602060002090505080806001019150506105eb565b50600061068942610753565b905060008060008473ffffffffffffffffffffffffffffffffffffffff1673ffffffffffffffffffffffffffffffffffffffff1681526020019081526020016000208260ff16815481106106d957fe5b9060005260206000209060030201905060008160000154420390507f000000000000000000000000000000000000000000000000000000000000000081111561074b57600080610728866109de565b509150915042846000018190555081846001018190555080846002018190555050505b505050505050565b6000807f0000000000000000000000000000000000000000000000000000000000000000838161077f57fe5b0490507f000000000000000000000000000000000000000000000000000000000000000060ff1681816107ae57fe5b06915050919050565b7f000000000000000000000000000000000000000000000000000000000000000081565b60008060006107ea8585610c69565b91509150858282604051602001808373ffffffffffffffffffffffffffffffffffffffff1673ffffffffffffffffffffffffffffffffffffffff1660601b81526014018273ffffffffffffffffffffffffffffffffffffffff1673ffffffffffffffffffffffffffffffffffffffff1660601b8152601401925050506040516020818303038152906040528051906020012060405160200180807fff000000000000000000000000000000000000000000000000000000000000008152506001018373ffffffffffffffffffffffffffffffffffffffff1673ffffffffffffffffffffffffffffffffffffffff1660601b8152601401828152602001807ff4ccce374816856d11f00e4069e7cada164065686fbef53c6167a63ec2fd8c5b815250602001925050506040516020818303038152906040528051906020012060001c925050509392505050565b60008061094242610753565b905060007f000000000000000000000000000000000000000000000000000000000000000060ff166001830160ff168161097857fe5b0690506000808573ffffffffffffffffffffffffffffffffffffffff1673ffffffffffffffffffffffffffffffffffffffff1681526020019081526020016000208160ff16815481106109c757fe5b906000526020600020906003020192505050919050565b60008060006109eb610e7b565b90508373ffffffffffffffffffffffffffffffffffffffff16635909c0d56040518163ffffffff1660e01b815260040160206040518083038186803b158015610a3357600080fd5b505afa158015610a47573d6000803e3d6000fd5b505050506040513d6020811015610a5d57600080fd5b810190808051906020019092919050505092508373ffffffffffffffffffffffffffffffffffffffff16635a3d54936040518163ffffffff1660e01b815260040160206040518083038186803b158015610ab657600080fd5b505afa158015610aca573d6000803e3d6000fd5b505050506040513d6020811015610ae057600080fd5b8101908080519060200190929190505050915060008060008673ffffffffffffffffffffffffffffffffffffffff16630902f1ac6040518163ffffffff1660e01b815260040160606040518083038186803b158015610b3e57600080fd5b505afa158015610b52573d6000803e3d6000fd5b505050506040513d6060811015610b6857600080fd5b810190808051906020019092919080519060200190929190805190602001909291905050509250925092508363ffffffff168163ffffffff1614610c5f57600081850390508063ffffffff16610bde846dffffffffffffffffffffffffffff16866dffffffffffffffffffffffffffff16610e91565b600001517bffffffffffffffffffffffffffffffffffffffffffffffffffffffff1602870196508063ffffffff16610c36856dffffffffffffffffffffffffffff16856dffffffffffffffffffffffffffff16610e91565b600001517bffffffffffffffffffffffffffffffffffffffffffffffffffffffff160286019550505b5050509193909250565b6000808273ffffffffffffffffffffffffffffffffffffffff168473ffffffffffffffffffffffffffffffffffffffff161415610d0e576040517f08c379a000000000000000000000000000000000000000000000000000000000815260040180806020018281038252601f8152602001807f4170654c6962726172793a204944454e544943414c5f4144445245535345530081525060200191505060405180910390fd5b8273ffffffffffffffffffffffffffffffffffffffff168473ffffffffffffffffffffffffffffffffffffffff1610610d48578284610d4b565b83835b8092508193505050600073ffffffffffffffffffffffffffffffffffffffff168273ffffffffffffffffffffffffffffffffffffffff161415610df6576040517f08c379a00000000000000000000000000000000000000000000000000000000081526004018080602001828103825260188152602001807f4170654c6962726172793a205a45524f5f41444452455353000000000000000081525060200191505060405180910390fd5b9250929050565b6000610e0761144e565b60405180602001604052808588880381610e1d57fe5b047bffffffffffffffffffffffffffffffffffffffffffffffffffffffff168152509050610e5c610e57848361117290919063ffffffff16565b611269565b71ffffffffffffffffffffffffffffffffffff16915050949350505050565b60006401000000004281610e8b57fe5b06905090565b610e9961144e565b60008211610ef2576040517f08c379a00000000000000000000000000000000000000000000000000000000081526004018080602001828103825260268152602001806114f26026913960400191505060405180910390fd5b6000831415610f3057604051806020016040528060007bffffffffffffffffffffffffffffffffffffffffffffffffffffffff16815250905061116c565b7fffffffffffffffffffffffffffffffffffffffffffffffffffffffffffffffff71ffffffffffffffffffffffffffffffffffff16831161106957600082607060ff1685901b81610f7d57fe5b0490507fffffffffffffffffffffffffffffffffffffffffffffffffffffffffffffffff7bffffffffffffffffffffffffffffffffffffffffffffffffffffffff16811115611034576040517f08c379a000000000000000000000000000000000000000000000000000000000815260040180806020018281038252601e8152602001807f4669786564506f696e743a3a6672616374696f6e3a206f766572666c6f77000081525060200191505060405180910390fd5b6040518060200160405280827bffffffffffffffffffffffffffffffffffffffffffffffffffffffff1681525091505061116c565b6000611085846e0100000000000000000000000000008561127e565b90507fffffffffffffffffffffffffffffffffffffffffffffffffffffffffffffffff7bffffffffffffffffffffffffffffffffffffffffffffffffffffffff1681111561113b576040517f08c379a000000000000000000000000000000000000000000000000000000000815260040180806020018281038252601e8152602001807f4669786564506f696e743a3a6672616374696f6e3a206f766572666c6f77000081525060200191505060405180910390fd5b6040518060200160405280827bffffffffffffffffffffffffffffffffffffffffffffffffffffffff168152509150505b92915050565b61117a61147f565b600080905060008314806111df575083600001517bffffffffffffffffffffffffffffffffffffffffffffffffffffffff16838486600001517bffffffffffffffffffffffffffffffffffffffffffffffffffffffff1602925082816111dc57fe5b04145b611251576040517f08c379a00000000000000000000000000000000000000000000000000000000081526004018080602001828103825260198152602001807f4669786564506f696e743a3a6d756c3a206f766572666c6f770000000000000081525060200191505060405180910390fd5b60405180602001604052808281525091505092915050565b6000607060ff168260000151901c9050919050565b600080600061128d868661135e565b915091506000848061129b57fe5b8688099050828111156112af576001820391505b808303925060008214156112d1578483816112c657fe5b049350505050611357565b848210611346576040517f08c379a000000000000000000000000000000000000000000000000000000000815260040180806020018281038252601a8152602001807f46756c6c4d6174683a2046554c4c4449565f4f564552464c4f5700000000000081525060200191505060405180910390fd5b6113518383876113b1565b93505050505b9392505050565b60008060007fffffffffffffffffffffffffffffffffffffffffffffffffffffffffffffffff8061138b57fe5b848609905083850292508281039150828110156113a9576001820391505b509250929050565b60008082600003831690508083816113c557fe5b0492508085816113d157fe5b04945060018182600003816113e257fe5b04018402850194506000600190508084026002038102905080840260020381029050808402600203810290508084026002038102905080840260020381029050808402600203810290508084026002038102905080840260020381029050808602925050509392505050565b604051806020016040528060007bffffffffffffffffffffffffffffffffffffffffffffffffffffffff1681525090565b604051806020016040528060008152509056fe536c6964696e6757696e646f774f7261636c653a204d495353494e475f484953544f524943414c5f4f42534552564154494f4e536c6964696e6757696e646f774f7261636c653a20554e45585045435445445f54494d455f454c41505345444669786564506f696e743a3a6672616374696f6e3a206469766973696f6e206279207a65726fa2646970667358221220bd906812bcbf3cc3f3ce73277b180afd8324ee8802255869cb377c0856fc100c64736f6c63430006060033536c6964696e6757696e646f774f7261636c653a2057494e444f575f4e4f545f4556454e4c595f444956495349424c45",
  "immutableReferences": {
    "2314": [
      {
        "length": 32,
        "start": 805
      },
      {
        "length": 32,
        "start": 1363
      },
      {
        "length": 32,
        "start": 1404
      }
    ],
    "2316": [
      {
        "length": 32,
        "start": 763
      },
      {
        "length": 32,
        "start": 871
      },
      {
        "length": 32,
        "start": 1028
      }
    ],
    "2318": [
      {
        "length": 32,
        "start": 727
      },
      {
        "length": 32,
        "start": 1517
      },
      {
        "length": 32,
        "start": 1924
      },
      {
        "length": 32,
        "start": 2376
      }
    ],
    "2320": [
      {
        "length": 32,
        "start": 994
      },
      {
        "length": 32,
        "start": 1782
      },
      {
        "length": 32,
        "start": 1880
      },
      {
        "length": 32,
        "start": 1977
      }
    ]
  },
  "source": "pragma solidity =0.6.6;\n\nimport '../interfaces/IApeFactory.sol';\nimport '../interfaces/IApePair.sol';\nimport '@uniswap/lib/contracts/libraries/FixedPoint.sol';\n\nimport '../libraries/SafeMath.sol';\nimport '../libraries/ApeLibrary.sol';\nimport '../libraries/ApeOracleLibrary.sol';\n\n// sliding window oracle that uses observations collected over a window to provide moving price averages in the past\n// `windowSize` with a precision of `windowSize / granularity`\n// note this is a singleton oracle and only needs to be deployed once per desired parameters, which\n// differs from the simple oracle which must be deployed once per pair.\ncontract ExampleSlidingWindowOracle {\n    using FixedPoint for *;\n    using SafeMath for uint;\n\n    struct Observation {\n        uint timestamp;\n        uint price0Cumulative;\n        uint price1Cumulative;\n    }\n\n    address public immutable factory;\n    // the desired amount of time over which the moving average should be computed, e.g. 24 hours\n    uint public immutable windowSize;\n    // the number of observations stored for each pair, i.e. how many price observations are stored for the window.\n    // as granularity increases from 1, more frequent updates are needed, but moving averages become more precise.\n    // averages are computed over intervals with sizes in the range:\n    //   [windowSize - (windowSize / granularity) * 2, windowSize]\n    // e.g. if the window size is 24 hours, and the granularity is 24, the oracle will return the average price for\n    //   the period:\n    //   [now - [22 hours, 24 hours], now]\n    uint8 public immutable granularity;\n    // this is redundant with granularity and windowSize, but stored for gas savings & informational purposes.\n    uint public immutable periodSize;\n\n    // mapping from pair address to a list of price observations of that pair\n    mapping(address => Observation[]) public pairObservations;\n\n    constructor(address factory_, uint windowSize_, uint8 granularity_) public {\n        require(granularity_ > 1, 'SlidingWindowOracle: GRANULARITY');\n        require(\n            (periodSize = windowSize_ / granularity_) * granularity_ == windowSize_,\n            'SlidingWindowOracle: WINDOW_NOT_EVENLY_DIVISIBLE'\n        );\n        factory = factory_;\n        windowSize = windowSize_;\n        granularity = granularity_;\n    }\n\n    // returns the index of the observation corresponding to the given timestamp\n    function observationIndexOf(uint timestamp) public view returns (uint8 index) {\n        uint epochPeriod = timestamp / periodSize;\n        return uint8(epochPeriod % granularity);\n    }\n\n    // returns the observation from the oldest epoch (at the beginning of the window) relative to the current time\n    function getFirstObservationInWindow(address pair) private view returns (Observation storage firstObservation) {\n        uint8 observationIndex = observationIndexOf(block.timestamp);\n        // no overflow issue. if observationIndex + 1 overflows, result is still zero.\n        uint8 firstObservationIndex = (observationIndex + 1) % granularity;\n        firstObservation = pairObservations[pair][firstObservationIndex];\n    }\n\n    // update the cumulative price for the observation at the current timestamp. each observation is updated at most\n    // once per epoch period.\n    function update(address tokenA, address tokenB) external {\n        address pair = ApeLibrary.pairFor(factory, tokenA, tokenB);\n\n        // populate the array with empty observations (first call only)\n        for (uint i = pairObservations[pair].length; i < granularity; i++) {\n            pairObservations[pair].push();\n        }\n\n        // get the observation for the current period\n        uint8 observationIndex = observationIndexOf(block.timestamp);\n        Observation storage observation = pairObservations[pair][observationIndex];\n\n        // we only want to commit updates once per period (i.e. windowSize / granularity)\n        uint timeElapsed = block.timestamp - observation.timestamp;\n        if (timeElapsed > periodSize) {\n            (uint price0Cumulative, uint price1Cumulative,) = ApeOracleLibrary.currentCumulativePrices(pair);\n            observation.timestamp = block.timestamp;\n            observation.price0Cumulative = price0Cumulative;\n            observation.price1Cumulative = price1Cumulative;\n        }\n    }\n\n    // given the cumulative prices of the start and end of a period, and the length of the period, compute the average\n    // price in terms of how much amount out is received for the amount in\n    function computeAmountOut(\n        uint priceCumulativeStart, uint priceCumulativeEnd,\n        uint timeElapsed, uint amountIn\n    ) private pure returns (uint amountOut) {\n        // overflow is desired.\n        FixedPoint.uq112x112 memory priceAverage = FixedPoint.uq112x112(\n            uint224((priceCumulativeEnd - priceCumulativeStart) / timeElapsed)\n        );\n        amountOut = priceAverage.mul(amountIn).decode144();\n    }\n\n    // returns the amount out corresponding to the amount in for a given token using the moving average over the time\n    // range [now - [windowSize, windowSize - periodSize * 2], now]\n    // update must have been called for the bucket corresponding to timestamp `now - windowSize`\n    function consult(address tokenIn, uint amountIn, address tokenOut) external view returns (uint amountOut) {\n        address pair = ApeLibrary.pairFor(factory, tokenIn, tokenOut);\n        Observation storage firstObservation = getFirstObservationInWindow(pair);\n\n        uint timeElapsed = block.timestamp - firstObservation.timestamp;\n        require(timeElapsed <= windowSize, 'SlidingWindowOracle: MISSING_HISTORICAL_OBSERVATION');\n        // should never happen.\n        require(timeElapsed >= windowSize - periodSize * 2, 'SlidingWindowOracle: UNEXPECTED_TIME_ELAPSED');\n\n        (uint price0Cumulative, uint price1Cumulative,) = ApeOracleLibrary.currentCumulativePrices(pair);\n        (address token0,) = ApeLibrary.sortTokens(tokenIn, tokenOut);\n\n        if (token0 == tokenIn) {\n            return computeAmountOut(firstObservation.price0Cumulative, price0Cumulative, timeElapsed, amountIn);\n        } else {\n            return computeAmountOut(firstObservation.price1Cumulative, price1Cumulative, timeElapsed, amountIn);\n        }\n    }\n}\n",
  "sourcePath": "/home/thomas/apeswap-fork/periphery/contracts/examples/ExampleSlidingWindowOracle.sol",
  "compiler": {
    "name": "solc",
    "version": "0.6.6+commit.6c089d02.Emscripten.clang"
  },
  "schemaVersion": "3.2.3",
  "updatedAt": "2021-04-22T16:46:34.182Z",
  "devdoc": {
    "methods": {}
  },
  "userdoc": {
    "methods": {}
  }
}